:02000000F22BE1
:06000600000000000800EC
:10000C000F3083120313FC004730FD00FD0B0C284E
:0A001C00FC0B0C2800000000080097
:0E002600213083120313FD00FD0B1728080084
:1000340083160313AE1B21288312861223288312EE
:10004400861683162E1B2928831206122B28831248
:1000540006168316AE1A31288312861133288312AA
:10006400861583162E1A3928831206113B2883120B
:10007400061567183F280614402806108614032026
:1000840086108316AE194928831286124B288312D0
:10009400861683162E1951288312061253288312AA
:1000A40006168316AE185928831286115B2883120C
:1000B400861583162E18612883120611632883126D
:1000C4000615671867280614682806108614032086
:0E00D4008610671C6F28062070281320080075
:1000E20083120313F801F9011030FC00710DF80DB1
:1000F200F90D7408F8027508031C750FF90203184C
:1001020089287408F80775080318750FF907031092
:0A011200F00DF10DFC0B772808003A
:0E011C008312031366088A006508820008003B
:10012A0083120313671083162908AE001A20671476
:02013A000800BB
:10013C0083160313AC0105302C020318AC282C08D1
:10014C002B07840020308000AC0AA1282C082B0738
:10015C0084008001AC032C082B07AD000A30F4009E
:10016C00F5012908F0002A08F10071207808F00048
:10017C007908F1003030F00783162D0884007008E0
:10018C0080000A30F400F5012908F0002A08F1007B
:10019C00712070088316A9007108AA00003071063E
:1001AC00031DDA2800307006031DDD28DF28AC03A0
:0401BC00B12808005E
:1001C0000E3083120313FD00FD0BE428000008002D
:1001D000831203132230FC00F801F901FA01FB013C
:1001E000FC0303191E290310FB0CFA0CF90CF80C84
:1001F000F30CF20CF10CF00C031CF028FC030319B7
:1002000010297408F80775080318750FF9077608A0
:100210000318760FFA0777080318770FFB07F428FF
:100220007408F80775080318750FF907760803189E
:0E023000760FFA0777080318770FFB07080010
:10023E0083160313A501A6012008A7002108A80014
:10024E0080302106F00080307002031D302900300E
:10025E00200203183E290130A5000030A600200818
:10026E00003CA7002108031C013EA801A802270894
:10027E00A9002808AA002208AB009E200630A30081
:10028E000030A4002408003C031D4F292308003C25
:10029E0003186A2923082207F20001302302F00016
:1002AE000030031C013E2402F10070082207840076
:1002BE000008F00072088400700880000130A3026C
:1002CE00031CA4034929220884002030800025083D
:1002DE00260403198829A301A401230822078400F8
:1002EE000008203A031D7F29A30A0319A40A7429C2
:1002FE000130A302031CA4032308220784002D301F
:04030E008000080063
:10031200831203139F01C0309F043609F000700856
:1003220083169F051F179F172008F000F00D70100D
:10033200F00D7010F00D7010700883129F041F14DE
:10034200E0201F151F1DA7290000A3291F101E084A
:10035200F100F00183161E08F0040030F1040800D9
:1003620083160313A101A2012008F2002008F30062
:10037200720884000008203A031DC42921082204BF
:10038200031DC429D1290130A1000030A200720846
:1003920084000008F0007308840070088000F30AEB
:1003A2007208F100F20A710884000008003A031D85
:0803B200B9292008F000080041
:1003BA00831603138610061006118611061286127A
:1003CA00831286100610861206128611061106205E
:1003DA000620062086150615861403208610062098
:1003EA008614032086100620861403208610062011
:1003FA000611861403208610062086140320861010
:10040A008611861686140320861006208612061583
:10041A0086140320861006118614032086100620EF
:10042A0086140320861006158614032086100620DB
:10043A0006118614032086108616061686150615DA
:0C044A00861403208610062067140800AA
:100456008E208A110A128000840AE50A0319E60A28
:08046600F003031D2B2A08001E
:10046E0083120313FB01FA01F901F801A001730DC8
:10047E00F80D7408F8027508031C750FF90276085A
:10048E00031C760FFA027708031C770FFB0200019C
:10049E00031C0130A002F30D0730FC00730DF80DA4
:1004AE00F90DFA0DFB0DA00D7408731C702AF802DD
:1004BE007508031C750FF9027608031C760FFA02F5
:1004CE007708031C770FFB020001031C0130A0020A
:1004DE00812AF80775080318750FF90776080318AF
:1004EE00760FFA0777080318770FFB07000103183A
:1004FE000130A007F30DFC0B552A720DF80DF90D06
:10050E00FA0DFB0DA00D7408731C9F2AF8027508D6
:10051E00031C750FF9027608031C760FFA02770892
:10052E00031C770FFB020001031C0130A002B02A4E
:10053E00F80775080318750FF90776080318760F74
:10054E00FA0777080318770FFB070001031801302D
:10055E00A007F20D0730FC00720DF80DF90DFA0D23
:10056E00FB0DA00D7408721CCE2AF8027508031C30
:10057E00750FF9027608031C760FFA027708031C32
:10058E00770FFB020001031C0130A002DF2AF807DF
:10059E0075080318750FF90776080318760FFA0712
:1005AE0077080318770FFB07000103180130A00727
:1005BE00F20DFC0BB32A710DF80DF90DFA0DFB0DB2
:1005CE00A00D7408721CFD2AF8027508031C750F25
:1005DE00F9027608031C760FFA027708031C770FD0
:1005EE00FB020001031C0130A0020E2BF807750858
:1005FE000318750FF90776080318760FFA077708B0
:10060E000318770FFB07000103180130A007F10D47
:10061E000730FC00710DF80DF90DFA0DFB0DA00D54
:10062E007408711C2C2BF8027508031C750FF90247
:10063E007608031C760FFA027708031C770FFB026D
:10064E000001031C0130A0023D2BF80775080318AA
:10065E00750FF90776080318760FFA07770803184F
:10066E00770FFB07000103180130A007F10DFC0BFB
:10067E00112B700DF80DF90DFA0DFB0DA00D740870
:10068E00711C5B2BF8027508031C750FF9027608B6
:10069E00031C760FFA027708031C770FFB0200018A
:1006AE00031C0130A0026C2BF80775080318750F98
:1006BE00F90776080318760FFA0777080318770FED
:1006CE00FB07000103180130A007F00D0730FC00F6
:1006DE00700DF80DF90DFA0DFB0DA00D7408701CC0
:1006EE008A2BF8027508031C750FF9027608031C95
:1006FE00760FFA027708031C770FFB020001031C2A
:10070E000130A0029B2BF80775080318750FF90727
:10071E0076080318760FFA0777080318770FFB078A
:10072E00000103180130A007F00DFC0B6F2B7018A1
:10073E00AE2B7408F80775080318750FF9077608BD
:10074E000318760FFA0777080318770FFB070800D0
:10075E00C12B803083160313A000D42BC030A00011
:10076E00D42B9430A000D42BD430A000D42B8030C6
:10077E00A000D42B831603132008013A0319B02BC3
:10078E002008023A0319B52B2008033A0319B82B97
:10079E002008043A0319BB2BBE2B2103F0002008BE
:1007AE00F0077008A0007008AE001A2067108316BC
:1007BE00A30123082207840000080319EF2B230846
:1007CE00220784000008A90095208316A30AE02BB7
:0607DE00831267140800FD
:1007E400F8248030831603139F00813083129F0006
:1007F4008316051486010710831207100230FB00CC
:100804000430FC00BA30FD00FD0B062CFC0B062C5A
:10081400FB0B062C0000DD2101308316AE001A20EC
:100824000C308316AE001A201A30FC00F830FD009C
:10083400FD0B1A2CFC0B1A2C000001308316A000AF
:100844000130A1003730A200AF2302308316A0008C
:100854000130A1004230A200AF231530FB004B3021
:10086400FC00BE30FD00FD0B352CFC0B352CFB0BC6
:10087400352C00008316A00189210030F200F3001A
:100884006430F4000030F5000030F6000030F7006A
:10089400E820FF30F4000330F500F601F7013722B9
:1008A4007008E80070088316A000A1016930A20056
:1008B4001F216930A000B1210130AE001A2032306E
:1008C400680203186F2C01308316A0000130A100C8
:1008D4005730A200AF230714862C46306802031C4D
:1008E4007D2C01308316A0000130A1004930A20004
:1008F400AF230710862C01308316A0000130A1001D
:100904002C30A200AF23071002308316A000013060
:10091400A1002130A200AF2302308316A0000B30C7
:10092400A1006930A200AF2302308316A0000E306C
:10093400A1003430A200AF230630FB001330FC00CA
:10094400AD30FD00FD0BA42CFC0BA42CFB0BA42C44
:08095400000000003C2CAD2C5A
:1009F00021308400443083120313F000B330E5004B
:080A00000430E6002B2208007F
:100966004D346F3469347334743475347234653489
:060976003A342034003485
:10097C0053346F3469346C3420344F344B3400347A
:04098C0025340034DA
:020990000F3422
:10099200493472347234693467346134743469347A
:0609A2006F346E340034D6
:0E09A800533479347334743465346D34003450
:1009B6005734653474342C3420344C346534613403
:0C09C60076346534203469347434003415
:1009D2004434723479342C342034573461347434CE
:0C09E200653472342034693474340034FD
:02400E007A3303
:00000001FF
